S00F0000445320736869742E73726563A6
S11300000C942A000C943F000C943F000C943F0085
S11300100C943F000C943F000C943F000C943F0060
S11300200C943F000C943F000C943F000C943F0050
S11300300C943F000C943F000C943F000C943F0040
S11300400C943F000C943F000C943F000C943F0030
S11300500C943F0011241FBECFE5D8E0DEBFCDBF16
S113006010E0A0E6B0E0E4E0F7E002C005900D92F5
S1130070A036B107D9F70E9416010C9480030C94A2
S1130080000085B38E7F85BB84B3816084BB80EA26
S11300908A95F1F784B38E7F84BB94E19A95F1F746
S11300A083B381709CE89A95F1F7089595B39E7F88
S11300B095BB94B3916094BB0000882319F084B37A
S11300C08E7F84BB84E18A95F1F784B38E7F84BBF1
S11300D0089585B38E7F85BB84B3816084BB0000A3
S11300E084B38E7F84BB84E08A95F1F700C098992D
S11300F002C080E001C081E09FE09A95F1F7089585
S1130100CF93DF93C82F88E006C08C2F81700E94A4
S11301105600C6958D2FDFEFD80F8111F6CFDF91F2
S1130120CF910895CF93DF9380E098E00AC0C82F61
S1130130C6950E94690020E8829FC00111248C2B7F
S11301409D2FDFEFD90F9111F2CFDF91CF91089559
S1130150CF93F8940E9441008CEC0E94800084E4C8
S11301600E9480000E9469008823E1F30E944100FC
S11301708CEC0E9480008EEB0E9480000E94920012
S1130180C82F0E9492007894682F70E0762F66271B
S11301906C0F711D072E000C880B990B0E945E02D8
S11301A020E030E040E85DE30E94EF02CF91089543
S11301B08F929F92AF92BF92CF92DF92EF92FF9273
S11301C06B017C0149015A019B01AC01C501B401D9
S11301D00E94EA0218164CF4A7019601C501B40165
S11301E00E94B9010E94260208C0A5019401C7011A
S11301F0B6010E94B9010E9426026530710540F0E3
S1130200CB010597059730F06A3071052CF405C0D1
S113021080E303C081E301C082E3FF90EF90DF90AD
S1130220CF90BF90AF909F908F90089587B38E7FAB
S113023087BB81B3816081BB81B3826081BB81B3A1
S1130240846081BB81B3886081BB0E94A800C62EF4
S1130250D72EE82EF92E2FE38DE093E02150804035
S11302609040E1F700C0000004C0CC2EDD2EE12E4A
S1130270F02E0E94A800C62FD72F182F092F262F43
S1130280372F482F592F6C2D7D2D8E2D9F2D0E9499
S1130290D800813371F08233B1F0803309F582B331
S11302A0816082BB82B38D7F82BB82B38B7F82BB32
S11302B017C082B3826082BB82B38E7F82BB82B35B
S11302C08B7F82BB0DC082B3846082BB82B38D7F7F
S11302D082BB82B38E7F82BB81E090E00E94980152
S11302E08FE493EC0197F1F700C00000B09B1CC0B1
S11302F08FE493EC0197F1F700C00000B09BB5CFF9
S11303008FE493EC0197F1F700C0000096B382B339
S1130310886082BB90FFA9CF81E090E00E949801A1
S113032082B3846082BBA1CF82B3877F82BB9DCF1F
S113033021B3206221BB2FB522602FBD2EB52860CA
S11303402EBD2EB520612EBD20E030E04AE754E4F6
S11303500E94EF020E942D027BBD6ABD8FE19EE4E4
S113036097BD86BD8EB581608EBD8FB580688FBD0B
S113037008955058BB27AA270E94D1010C94B002BB
S11303800E94A20238F00E94A90220F039F49F3F93
S113039019F426F40C949F020EF4E095E7FB0C94F8
S11303A09902E92F0E94C10258F3BA176207730732
S11303B08407950720F079F4A6F50C94E3020EF473
S11303C0E0950B2EBA2FA02D0B01B90190010C0161
S11303D0CA01A0011124FF27591B99F0593F50F479
S11303E0503E68F11A16F040A22F232F342F4427D1
S11303F0585FF3CF469537952795A795F0405395C9
S1130400C9F77EF41F16BA0B620B730B840BBAF098
S11304109150A1F0FF0FBB1F661F771F881FC2F703
S11304200EC0BA0F621F731F841F48F48795779517
S11304306795B795F7959E3F08F0B0CF9395880FD1
S113044008F09927EE0F9795879508950E942D023D
S11304506894B1110C94E40208950E94C90288F0D2
S11304609F5798F0B92F9927B751B0F0E1F0660F74
S1130470771F881F991F1AF0BA95C9F714C0B130B5
S113048091F00E94E302B1E008950C94E302672F17
S1130490782F8827B85F39F0B93FCCF386957795E4
S11304A06795B395D9F73EF49095809570956195CD
S11304B07F4F8F4F9F4F0895E89409C097FB3EF4F8
S11304C090958095709561957F4F8F4F9F4F99239D
S11304D0A9F0F92F96E9BB279395F695879577951B
S11304E06795B795F111F8CFFAF4BB0F11F460FFDB
S11304F01BC06F5F7F4F8F4F9F4F16C0882311F033
S113050096E911C0772321F09EE8872F762F05C046
S1130510662371F096E8862F70E060E02AF09A95E1
S1130520660F771F881FDAF7880F9695879597F9D6
S1130530089597F99F6780E870E060E008959FEF61
S113054080EC089500240A94161617061806090666
S1130550089500240A941216130614060506089535
S1130560092E0394000C11F4882352F0BB0F40F4BD
S1130570BF2B11F460FF04C06F5F7F4F8F4F9F4FFD
S1130580089557FD9058440F551F59F05F3F71F07F
S11305904795880F97FB991F61F09F3F79F08795E6
S11305A00895121613061406551FF2CF4695F1DF6F
S11305B008C0161617061806991FF1CF86957105FF
S11305C0610508940895E894BB2766277727CB0133
S11305D097F908950E945C0308F48FEF08950E9430
S11305E002030C94B0020E94A20238F00E94A902F5
S11305F020F0952311F00C9499020C949F0211247D
S11306000C94E4020E94C10270F3959FC1F3950F0C
S113061050E0551F629FF001729FBB27F00DB11D82
S1130620639FAA27F00DB11DAA1F649F6627B00D12
S1130630A11D661F829F2227B00DA11D621F739FFB
S1130640B00DA11D621F839FA00D611D221F749F09
S11306503327A00D611D231F849F600D211D822F50
S1130660762F6A2F11249F5750409AF0F1F0882377
S11306704AF0EE0FFF1FBB1F661F771F881F9150A4
S11306805040A9F79E3F510580F00C9499020C94B8
S1130690E4025F3FE4F3983ED4F38695779567953B
S11306A0B795F795E7959F5FC1F7FE2B880F911DCE
S11306B09695879597F90895990F0008550FAA0BF9
S11306C0E0E8FEEF16161706E807F907C0F0121661
S11306D01306E407F50798F0621B730B840B950B64
S11306E039F40A2661F0232B242B252B21F40895B9
S11306F00A2609F4A140A6958FEF811D811D089556
S1070700F894FFCF97
S9030000FC
